{"number":"0xf6281a","hash":"0x0f237d5f202e196b913bf1ad17f6324f3fac5524cfa5aca660f44032b201f9ac","transactions":[{"blockHash":"0x0f237d5f202e196b913bf1ad17f6324f3fac5524cfa5aca660f44032b201f9ac","blockNumber":"0xf6281a","hash":"0x897bbdb77bf1a914becdc999d46dcd1fe0ab15900ccdbce78b23e25586b8e58b","from":"0x3faa4a3a0d5f4b254b06ca8670b6f38087d7bfde","gas":"0x1e8480","gasPrice":"0xf4240","input":"0xb71c205c00000000000000000000000000000000000000000002a36dc503f025e0000000","nonce":"0x1900","r":"0x3a01205645d2c198e0dbf4c703c4301495a311961489f48a78cbff3051214401","s":"0x3197b0a8c2e09c34a6d0467b6b2144f3c5724b6ab8495397215e2b4b18976ef6","to":"0x761708eac6d1277828b6de21e2f346b649233a6a","transactionIndex":"0x0","v":"0x37","value":"0x1f9ee9541245e990","l1BlockNumber":"0xe85d88","l1Timestamp":"0x62e1f688","index":"0xf62819","queueOrigin":"sequencer","rawTransaction":"0xf891821900830f4240831e848094761708eac6d1277828b6de21e2f346b649233a6a881f9ee9541245e990a4b71c205c00000000000000000000000000000000000000000002a36dc503f025e000000037a03a01205645d2c198e0dbf4c703c4301495a311961489f48a78cbff3051214401a03197b0a8c2e09c34a6d0467b6b2144f3c5724b6ab8495397215e2b4b18976ef6"}],"difficulty":"0x2","extraData":"0xd98301090a846765746889676f312e31352e3133856c696e7578000000000000ee2cebbb31963833c148791afb9b41adb8204087e557dfa465efd497eaba1c5b1d64dc80a85bbd6d8afc896918ffcd65ea528cebf39041e4c0fabf3694ed7c6500","gasLimit":"0xe4e1c0","gasUsed":"0x29418","logsBloom":"0x00000000000000000000008000000000000000000000000000040000000000000000000000000000000000100000000000000040000020000000000000040000000000000000000800000008000000000000000000000000000400008000000010000000000000000000000000000000000000020000000000000010800800000000000000000000000800000000000000000001002000000000000000000000000000000000000000000000000000000000000000000000000000000000400000000002000000000008000000000000000000000000000000000100000000000000000000010000000000000000080000000000008000400000000000010000","miner":"0x0000000000000000000000000000000000000000","mixHash":"0x0000000000000000000000000000000000000000000000000000000000000000","nonce":"0x0000000000000000","parentHash":"0x5cc68616256ee26edcfdb20260d827380c9793391f527266f88ef54bf50d6cba","receiptsRoot":"0x3bba004956cfb67ba8fbb9d49b5481df4ca945881ea9878244fd172d1f88acfe","sha3Uncles":"0x1dcc4de8dec75d7aab85b567b6ccd41ad312451b948a7413f0a142fd40d49347","size":"0x2f8","stateRoot":"0xf7b593e2f9a35c054e42b84f3d92feaf3c76dd5c41852d922a169edb40553ee7","timestamp":"0x62e1f688","totalDifficulty":"0x1ec5035","transactionsRoot":"0x459047031dfdc97828b0912b1b439be547772e0907b24d45682a8a3bd2e550cf","uncles":[]}
